:1000000012C02AC029C028C027C026C025C024C0CD
:1000100023C022C021C020C01FC01EC01DC01CC0E4
:100020001BC01AC019C011241FBECFEDCDBF10E0F8
:10003000A0E6B0E0E6E1F3E002C005900D92A03743
:10004000B107D9F720E0A0E7B0E001C01D92A038C9
:10005000B207E1F7E3D05DC1D3CF809174009091F6
:100060007500880F991F880F991F8C7C9C7C90933A
:1000700075008093740049B3342F36953695232F3D
:10008000269526954370842B3370932B422F437013
:1000900050E042955295507F5427407F5427842B3F
:1000A000952B2695269530E0322F22273295307FEA
:1000B000822B932B9093750080937400FC01EF705A
:1000C000FF27E05AFF4F408120917000420F40937C
:1000D0007000FC01F295E295EF70EF27FF70EF27BB
:1000E000EF70FF27E05AFF4F308120917200320FEE
:1000F00030937200E92FFF27EF70FF27E05AFF4F80
:10010000508120917100250F20937100892F99272C
:1001100082958F70FC01E05AFF4F908180917300AF
:10012000890F8093730044300CF044C04D3F0CF4B1
:1001300068C0343094F53D3F0CF456C024308CF444
:100140002D3F0CF444C08430D4F080917D00909118
:100150007E00019790937E0080937D001092730043
:10016000089520917B0030917C002F5F3F4F3093AA
:100170007C0020937B0010927100843034F78D3F17
:100180005CF480917D0090917E00019690937E00BA
:1001900080937D00109273000895409179005091F2
:1001A0007A004F5F5F4F50937A004093790010922E
:1001B0007200C4CF40917700509178004F5F5F4F3D
:1001C000509378004093770010927000B2CF209146
:1001D0007B0030917C002150310930937C002093CA
:1001E0007B0010927100AFCF4091790050917A005E
:1001F0004150510950937A00409379001092720057
:100200009DCF409177005091780041505109509313
:10021000780040937700109270008BCF86B187688A
:1002200086B988E18DB9B998C39887B38F7C87BBAD
:1002300080E388BB1ABA8FEF8BBBD1E0C0E480911A
:100240007600882389F1B3991092760096B394FBD7
:10025000882780F98D2795FF50C090E0892B97B1B2
:10026000907E996097B9369A3699FECF24B135B110
:100270002E3E92E0390708F042C0283592E0390757
:1002800008F044C041E02039314008F440E090E0FB
:10029000892B411139C090E0892B80937F00DDDEEE
:1002A000809176008111CFCFB399D0CFD0937600D3
:1002B000B99AC39AE7E7F0E08081918132969FB9BD
:1002C000CEB9769BFECF9FB18FB9CEB9769BFECFCC
:1002D0008FB180E0EF37F80779F780917F008FB911
:1002E000CEB9769BFECF8FB1B998C39896B394FBE5
:1002F000882780F98D2795FDB0CF94E0AFCF41E0FE
:1003000092E0892B442339F298E0C6CF40E092E096
:06031000F8CFF894FFCFC6
:1003160000FF0100010000FFFF0000010001FF00D7
:00000001FF
