:1000000012C021C020C01FC01EC01DC01CC01BC00C
:100010001AC019C018C017C016C015C014C013C02C
:1000200012C011C010C011241FBECFE5D1E0DEBF49
:10003000CDBF20E0A0E6B0E001C01D92A136B2071E
:10004000E1F77BD09EC0DCCFB99AC39A0895B998E6
:10005000C398089588E18DB9FACF80916000882314
:1000600029F0B39B09C01092600006C0B39905C087
:1000700081E080936000089580E008958FB980E466
:100080008EB9769BFECF8FB108951F93CF93DF93E8
:10009000182F892FF3DFC82FD0E0DC2FCC27812F3A
:1000A000EDDF9E01282BC901DF91CF911F910895AB
:1000B0008EE18ABB82E08BBB80E387BB88B38F7CF9
:1000C00088BB0895882319F020E030E102C020E0C9
:1000D00030E97F70622B732BD998442331F0811162
:1000E00002C0C49A07C0C59A05C0811102C0C49855
:1000F00001C0C59882E08A95F1F700C020E18BB37A
:10010000972F991F9927991F990F990F990F837FFF
:10011000892B8BBB82E08A95F1F700C0DA9A82E0E6
:100120008A95F1F700C0660F771F215041F7D99AE1
:1001300082E08A95F1F700C00895BADF8BDFC0E056
:10014000D0E000E010E089DF882351F07DDF80E01F
:1001500090E09BDF8C0180E090E097DFEC0177DF9F
:10016000412F441F4427441FB8017F7080E0AADF5D
:100170004D2F441F4427441FBE017F7081E0A2DF42
:06018000E2CFF894FFCF6E
:00000001FF
