:1000000012C02AC029C028C027C026C025C024C0CD
:1000100023C022C021C020C01FC01EC01DC01CC0E4
:100020001BC01AC019C011241FBECFEDCDBF10E0F8
:10003000A0E6B0E0E4E9F1E002C005900D92A0373F
:10004000B107D9F720E0A0E7B0E001C01D92A137C9
:10005000B207E1F752D09CC0D3CFB99AC39A0895A2
:10006000B998C398089588E18DB9FACF809170004E
:10007000882329F0B39B09C01092700006C0B39981
:1000800005C081E080937000089580E008958FB9E5
:1000900080E48EB9769BFECF8FB108951F93CF93E6
:1000A000DF93182F892FF3DFC82FD0E0DC2FCC2768
:1000B000812FEDDF9E01282BC901DF91CF911F9188
:1000C00008959C0136952795E0E6F0E080E090E009
:1000D00061E070E04FE04E0F20FD09C0DB010080C1
:1000E00002C0AA0FBB1F0A94E2F78A2B9B2B3695FE
:1000F000279531964E13F0CF0895B5DF80EF8ABB78
:100100008FEF8BBBC0E0A12CB12CCC24CA94DC2C8B
:10011000EE24E394F12C0FE010E0A8DF882321F017
:100120009CDFC501BBDF9CDFEC2FF0E0CF01049624
:10013000970102C0220F331F8A95E2F7C90180950B
:100140008BBB3AE13A95F1F700C099B3EE0FFF1F70
:10015000EE0FFF1FA8010E2E02C0440F551F0A9478
:10016000E2F7BA0160957095A601462357239F7068
:10017000292F30E002C0220F331FEA95E2F76A010F
:10018000C22AD32AC6019DDF5C01CF5FC370C5CFF1
:04019000F894FFCF11
:100194000E05030C0809010D0A07000B06040200F2
:00000001FF
