:1000000012C02CC02BC02AC029C028C027C026C0BF
:1000100025C024C023C022C021C020C01FC01EC0D4
:100020001DC01CC01BC011241FBECFE5D1E0DEBF28
:10003000CDBF10E0A0E6B0E0EEE2F1E002C0059036
:100040000D92A436B107D9F720E0A4E6B0E001C0D4
:100050001D92AD36B207E1F745D067C0D1CFB99A4E
:10006000C39A0895B998C398089588E18DB9FACFD5
:1000700080916400882329F0B39B09C0109264002A
:1000800006C0B39905C081E080936400089580E0C4
:1000900008958FB980E48EB9769BFECF8FB1089515
:1000A0001F93CF93DF93182F892FF3DFC82FD0E052
:1000B000DC2FCC27812FEDDF9E01282BC901DF919A
:1000C000CF911F91089586B1876886B9089597B139
:1000D0008F71907E892B87B9369A3699FECF84B17D
:1000E00095B10895F0DFC1DFC0E0C2DF882369F079
:1000F000B6DF05E610E0F801819191918F01D0DF24
:10010000F0E00D361F07B9F7ADDFD0E0FE01E05A91
:10011000FF4F8081DCDFFE01EE0FFF1FEB59FF4F29
:0E012000918380832196C370E0CFF894FFCFC7
:04012E0005030406BB
:00000001FF
